:1000000005308A00432D0000FF00030E8301A1008C
:100010000A08A0008A010408A2007708A300780853
:10002000A4007908A5007A08A600831383128C30F7
:100030008400001C1D280C182E2822088400230888
:10004000F7002408F8002508F9002608FA0020081F
:100050008A00210E8300FF0E7F0E09008A110A120A
:100060003F280A108A100A118207C034F934A434D8
:10007000B034993492348234F83480349034A70AFE
:100080000319A80A8E010B308F00DC308E0029087E
:100090001E3C031D5028AA08031D5028AA01A901CF
:1000A0000C108A110A121D283630840083130008B0
:1000B000031967280230F800F701F70B5D28F80BE9
:1000C0005C289730F700F70B6328800B5A2808004C
:1000D000301430088316870083120718BF281430A5
:1000E000B600542030143008831687008312071896
:1000F000BF282D08013C031CB728AD0A8316061142
:10010000831206118316861083128610831606103A
:100110008312061083168613831286138316091022
:10012000831209108316061383120613831689108F
:100130008312891083168612831286128316061282
:100140008312061283168611831286118316861374
:10015000831286138316091083120910831606135F
:10016000831206138316891083128910B828AD01F3
:1001700030143008831687008312071CB8288A11B0
:100180000A12842DA808031DC9282708033C031858
:100190002B2AA801A701A90A0319AA0AAA08031D64
:1001A000142929080B3C031C1429831606118312F9
:1001B0000615831686108312861083160610831286
:1001C0000610831686138312861383160910831272
:1001D00009108316061383120617831689108312DB
:1001E00089148316861283128612831606128312CE
:1001F00006128316861183128615831686138312C0
:1002000086138316091083120910831606138312AE
:100210000617831689108312891429080B3CAB003A
:1002200029080F3CAC002B2AAA08031D5A292908CB
:100230000F3C031C5A2983160611831206118316DC
:1002400086108312861483160610831206108316F6
:1002500086138312861383160910831209108316DE
:1002600006138312061783168910831289148316C6
:1002700086128312861283160612831206128316C2
:1002800086118312861583168613831286138316AE
:10029000091083120910831606138312061783169A
:1002A00089108312891429080F3CAB0029080F3CE0
:1002B000AC002B2AAA08031DA0292908153C031C01
:1002C000A029831606118312061183168610831245
:1002D0008610831606108312061483168613831263
:1002E00086138316091083120910831606138312CE
:1002F00006178316891083128914831686128312B7
:10030000861683160612831206128316861183122E
:10031000861183168613831286138316091083129F
:100320000914831606138312061783168910831285
:10033000891429081E3CAB002908153CAC002B2A67
:10034000AA08031DE6292908193C031CE62983167F
:1003500006118312061183168610831286108316E7
:1003600006108312061483168613831286138316CF
:1003700009108312091083160613831206178316B9
:1003800089108312891483168612831286128316AB
:10039000061283120616831686118312861183169F
:1003A000861383128613831609108312091083168D
:1003B00006138312061783168910831289142908DD
:1003C0001E3CAB002908193CAC002B2AAA08031DCF
:1003D0002B2A29081E3C031C2B2A83160611831284
:1003E0000611831686108312861083160610831258
:1003F0000614831686138312861783160910831238
:1004000009108316061383120617831689108312A8
:10041000891483168612831286128316061283129B
:10042000061283168611831286158316861383128D
:100430008617831609108312091083160613831278
:100440000617831689108312891429081E3CAB00F5
:1004500029082D3CAC008A110A12882D3708F801B2
:1004600036020318362A3608F700422AF701083008
:10047000B800B60DF70D370877020318F700F80D2E
:10048000B80B392A080036080739F700360CF8008F
:10049000F80CF80C1F30F80578083807840083132F
:1004A00039188317F801F80AF70A572AF80DF70BDD
:1004B000562AB70803195F2A78088004622AF809C7
:1004C0007808800508003108B6000A30B7002E22EF
:1004D0007808B4003108B6000A30B7002E22770839
:1004E000B50034083120B600831685018312360822
:1004F00085003208B600B701B901B80143223208BD
:10050000B600B701B9018030B80043220130B6000F
:1005100054203208B6000130B700B901B8014322B7
:100520003208B600B701B9018030B800432235085F
:100530003120B60083168501831236088500330802
:10054000B600B701B901B80143223308B600B701BC
:10055000B9018030B80043220130B600542033087E
:10056000B6000130B700B901B80143223308B60024
:10057000B701B9018030B80043228A110A128F2DC9
:100580003108B6000A30B7002E227808B4003108CE
:10059000B6000A30B7002E227708B50034083120A3
:1005A000B600831685018312360885003208B6002E
:1005B000B701B901B80143223208B600B701B90149
:1005C0008030B80043220130B60054203208B60013
:1005D0000130B700B901B80143223208B600B701B3
:1005E000B9018030B800432235083120B6008316A7
:1005F00085018312360885003308B600B701B901BA
:10060000B80143223308B600B701B9018030B80001
:1006100043220130B60054203308B6000130B70041
:10062000B901B80143223308B600B701B9018030DF
:10063000B80043228A110A12962D3108B6000A30FA
:10064000B7002E227808B4003108B6000A30B7008F
:100650002E227708B50034083120B60083168501B4
:100660008312360885003208B600B701B901B80117
:1006700043223208B600B701B9018030B8004322E6
:100680000130B60054203208B6000130B700B9017D
:10069000B80143223208B600B701B9018030B80072
:1006A000432235083120B6008316850183123608AF
:1006B00085003308B600B701B901B80143223308F9
:1006C000B600B701B9018030B80043220130B6004E
:1006D00054203308B6000130B700B901B8014322F5
:1006E0003308B600B701B9018030B80043228A113F
:1006F0000A129D2D3108B6000A30B7002E22780864
:10070000B4003108B6000A30B7002E227708B500D1
:1007100034083120B600831685018312360885001F
:100720003208B600B701B901B80143223208B60059
:10073000B701B9018030B80043220130B60054201F
:100740003208B6000130B700B901B80143223208BF
:10075000B600B701B9018030B80043223508312016
:10076000B600831685018312360885003308B6006B
:10077000B701B901B80143223308B600B701B90186
:100780008030B80043220130B60054203308B60050
:100790000130B700B901B80143223308B600B701F0
:1007A000B9018030B80043228A110A12A42DB01476
:1007B00030088316870083128718F52B1430B60093
:1007C0005420B01430088316870083128718F52B45
:1007D0000130AE008316860183128601B014300802
:1007E000831687008312871CEE2BB0153008831602
:1007F000870083128719132C1430B6005420B015CB
:1008000030088316870083128719132C0230AE003C
:100810008316860183128601B0153008831687007F
:100820008312871D0C2C3015300883168700831225
:100830000719312C1430B6005420301530088316B7
:10084000870083120719312C0330AE00831686010E
:100850008312860130153008831687008312071D26
:100860002A2C2E08013A03193C2C033A0319452C73
:10087000013A03194E2C562C8316061083120614C7
:100880008316861283128616562C8316061183123F
:1008900006158316861183128615562C83160610AC
:1008A00083120614831686118312861530163008BB
:1008B000831687008312071A782C1430B600542050
:1008C00030163008831687008312071A782C003000
:1008D0002F180130003A031D702C0130AF06712C27
:1008E0002F1030163008831687008312071E712CD4
:1008F00000302F180130003A0319822C013A0319F5
:10090000872C8B2C83160613831206138B2C8316CD
:10091000061383120617B016300883168700831259
:10092000871AAD2C1430B6005420B0163008831648
:1009300087008312871AAD2C0030AF180130003ABF
:10094000031DA52C0230AF06A62CAF10B016300840
:10095000831687008312871EA62C0030AF18013043
:10096000003A0319B72C013A0319BC2CC02C83168A
:10097000861383128613C02C831686138312861760
:1009800030173008831687008312071BE22C1430BF
:10099000B600542030173008831687008312071BD7
:1009A000E22C00302F190130003A031DDA2C0430FC
:1009B000AF06DB2C2F113017300883168700831207
:1009C000071FDB2C00302F190130003A0319EC2CE3
:1009D000013A0319F12CF52C831689108312891022
:1009E000F52C8316891083128914B01730088316EA
:1009F00087008312871B172D1430B6005420B017C0
:100A00003008831687008312871B172D0030AF191B
:100A10000130003A031D0F2D0830AF06102DAF1125
:100A2000B0173008831687008312871F102D0030FF
:100A3000AF190130003A0319212D013A0319262D6F
:100A40002A2D83160910831209102A2D83160910E6
:100A5000831209148A110A12B12DA808031D342D1E
:100A60002708013C0318402DA801A7018316861012
:100A70000230831286068316061210308312860611
:100A80008A110A12C02D03081F39830071308316A2
:100A90008F000F088312A801A701AA01A901AB01C9
:100AA000AC01AD01AE012F10AF102F11AF11FF300F
:100AB000B000831603170908C039890003131F12F9
:100AC0009F12003003178800831287018801890173
:100AD00083130030831603138500860088000910F5
:100AE000891009118911FF3087008312B000353059
:100AF00090008E010B308F00DC308E0083160C14BA
:100B0000C03083128B046828AD08031DA52DC228B0
:100B10002B08B1004030B2004130B300632A2B08EB
:100B2000B1004630B2004730B300C02A2C08B100F3
:100B30004230B2004330B3001D2B2C08B1004430CA
:100B4000B2004530B3007A2BC02D2D0BB22D831689
:100B50008801FF3083128800831685018312850087
:100B6000D72BC02D2D08023C031DC02D83168801F4
:100B7000FF308312880083168501831285002D2D96
:040B8000832D63005E
:04400E00E42FFF3F5D
:00000001FF
;PIC16F887
;CRC=7938  CREATED="15-Jun-25 09:55"
